{
  "contractName": "ContractFactory",
  "abi": [
    {
      "inputs": [
        {
          "internalType": "uint256",
          "name": "",
          "type": "uint256"
        }
      ],
      "name": "contracts",
      "outputs": [
        {
          "internalType": "address",
          "name": "",
          "type": "address"
        }
      ],
      "stateMutability": "view",
      "type": "function"
    },
    {
      "inputs": [],
      "name": "lastContractAddress",
      "outputs": [
        {
          "internalType": "address",
          "name": "",
          "type": "address"
        }
      ],
      "stateMutability": "view",
      "type": "function"
    },
    {
      "inputs": [],
      "name": "getContractCount",
      "outputs": [
        {
          "internalType": "uint256",
          "name": "contractCount",
          "type": "uint256"
        }
      ],
      "stateMutability": "view",
      "type": "function"
    },
    {
      "inputs": [
        {
          "internalType": "string",
          "name": "name",
          "type": "string"
        },
        {
          "internalType": "string",
          "name": "symbol",
          "type": "string"
        }
      ],
      "name": "deploy",
      "outputs": [
        {
          "internalType": "address",
          "name": "newContract",
          "type": "address"
        }
      ],
      "stateMutability": "nonpayable",
      "type": "function"
    },
    {
      "inputs": [
        {
          "internalType": "contract NFT",
          "name": "tokenAddress",
          "type": "address"
        }
      ],
      "name": "mint",
      "outputs": [],
      "stateMutability": "nonpayable",
      "type": "function"
    }
  ],
  "bytecode": "0x608060405234801561001057600080fd5b50613465806100206000396000f3fe608060405234801561001057600080fd5b50600436106100575760003560e01c8063327097381461005c578063474da79a146100a65780636a627842146101145780639399869d14610158578063b548848714610176575b600080fd5b610064610308565b604051808273ffffffffffffffffffffffffffffffffffffffff1673ffffffffffffffffffffffffffffffffffffffff16815260200191505060405180910390f35b6100d2600480360360208110156100bc57600080fd5b810190808035906020019092919050505061032e565b604051808273ffffffffffffffffffffffffffffffffffffffff1673ffffffffffffffffffffffffffffffffffffffff16815260200191505060405180910390f35b6101566004803603602081101561012a57600080fd5b81019080803573ffffffffffffffffffffffffffffffffffffffff16906020019092919050505061036a565b005b610160610428565b6040518082815260200191505060405180910390f35b6102c66004803603604081101561018c57600080fd5b81019080803590602001906401000000008111156101a957600080fd5b8201836020820111156101bb57600080fd5b803590602001918460018302840111640100000000831117156101dd57600080fd5b91908080601f016020809104026020016040519081016040528093929190818152602001838380828437600081840152601f19601f8201169050808301925050505050505091929192908035906020019064010000000081111561024057600080fd5b82018360208201111561025257600080fd5b8035906020019184600183028401116401000000008311171561027457600080fd5b91908080601f016020809104026020016040519081016040528093929190818152602001838380828437600081840152601f19601f820116905080830192505050505050509192919290505050610434565b604051808273ffffffffffffffffffffffffffffffffffffffff1673ffffffffffffffffffffffffffffffffffffffff16815260200191505060405180910390f35b600160009054906101000a900473ffffffffffffffffffffffffffffffffffffffff1681565b6000818154811061033b57fe5b906000526020600020016000915054906101000a900473ffffffffffffffffffffffffffffffffffffffff1681565b8073ffffffffffffffffffffffffffffffffffffffff1663755edd17336040518263ffffffff1660e01b8152600401808273ffffffffffffffffffffffffffffffffffffffff1673ffffffffffffffffffffffffffffffffffffffff168152602001915050602060405180830381600087803b1580156103e957600080fd5b505af11580156103fd573d6000803e3d6000fd5b505050506040513d602081101561041357600080fd5b81019080805190602001909291905050505050565b60008080549050905090565b6000808383604051610445906105f3565b808060200180602001838103835285818151815260200191508051906020019080838360005b8381101561048657808201518184015260208101905061046b565b50505050905090810190601f1680156104b35780820380516001836020036101000a031916815260200191505b50838103825284818151815260200191508051906020019080838360005b838110156104ec5780820151818401526020810190506104d1565b50505050905090810190601f1680156105195780820380516001836020036101000a031916815260200191505b50945050505050604051809103906000f08015801561053c573d6000803e3d6000fd5b50905060008190506000819080600181540180825580915050600190039060005260206000200160009091909190916101000a81548173ffffffffffffffffffffffffffffffffffffffff021916908373ffffffffffffffffffffffffffffffffffffffff16021790555080600160006101000a81548173ffffffffffffffffffffffffffffffffffffffff021916908373ffffffffffffffffffffffffffffffffffffffff160217905550809250505092915050565b612e2f806106018339019056fe60806040523480156200001157600080fd5b5060405162002e2f38038062002e2f833981810160405260408110156200003757600080fd5b81019080805160405193929190846401000000008211156200005857600080fd5b838201915060208201858111156200006f57600080fd5b82518660018202830111640100000000821117156200008d57600080fd5b8083526020830192505050908051906020019080838360005b83811015620000c3578082015181840152602081019050620000a6565b50505050905090810190601f168015620000f15780820380516001836020036101000a031916815260200191505b50604052602001805160405193929190846401000000008211156200011557600080fd5b838201915060208201858111156200012c57600080fd5b82518660018202830111640100000000821117156200014a57600080fd5b8083526020830192505050908051906020019080838360005b838110156200018057808201518184015260208101905062000163565b50505050905090810190601f168015620001ae5780820380516001836020036101000a031916815260200191505b506040525050508181620001cf6301ffc9a760e01b6200025360201b60201c565b8160069080519060200190620001e79291906200035c565b508060079080519060200190620002009291906200035c565b50620002196380ac58cd60e01b6200025360201b60201c565b62000231635b5e139f60e01b6200025360201b60201c565b6200024963780e9d6360e01b6200025360201b60201c565b505050506200040b565b63ffffffff60e01b817bffffffffffffffffffffffffffffffffffffffffffffffffffffffff19161415620002f0576040517f08c379a000000000000000000000000000000000000000000000000000000000815260040180806020018281038252601c8152602001807f4552433136353a20696e76616c696420696e746572666163652069640000000081525060200191505060405180910390fd5b6001600080837bffffffffffffffffffffffffffffffffffffffffffffffffffffffff19167bffffffffffffffffffffffffffffffffffffffffffffffffffffffff1916815260200190815260200160002060006101000a81548160ff02191690831515021790555050565b828054600181600116156101000203166002900490600052602060002090601f016020900481019282601f106200039f57805160ff1916838001178555620003d0565b82800160010185558215620003d0579182015b82811115620003cf578251825591602001919060010190620003b2565b5b509050620003df9190620003e3565b5090565b6200040891905b8082111562000404576000816000905550600101620003ea565b5090565b90565b612a14806200041b6000396000f3fe608060405234801561001057600080fd5b50600436106101165760003560e01c80636352211e116100a257806395d89b411161007157806395d89b4114610602578063a22cb46514610685578063b88d4fde146106d5578063c87b56dd146107da578063e985e9c51461088157610116565b80636352211e1461045d5780636c0360eb146104cb57806370a082311461054e578063755edd17146105a657610116565b806318160ddd116100e957806318160ddd146102bf57806323b872dd146102dd5780632f745c591461034b57806342842e0e146103ad5780634f6ccce71461041b57610116565b806301ffc9a71461011b57806306fdde0314610180578063081812fc14610203578063095ea7b314610271575b600080fd5b6101666004803603602081101561013157600080fd5b8101908080357bffffffffffffffffffffffffffffffffffffffffffffffffffffffff191690602001909291905050506108fd565b604051808215151515815260200191505060405180910390f35b610188610964565b6040518080602001828103825283818151815260200191508051906020019080838360005b838110156101c85780820151818401526020810190506101ad565b50505050905090810190601f1680156101f55780820380516001836020036101000a031916815260200191505b509250505060405180910390f35b61022f6004803603602081101561021957600080fd5b8101908080359060200190929190505050610a06565b604051808273ffffffffffffffffffffffffffffffffffffffff1673ffffffffffffffffffffffffffffffffffffffff16815260200191505060405180910390f35b6102bd6004803603604081101561028757600080fd5b81019080803573ffffffffffffffffffffffffffffffffffffffff16906020019092919080359060200190929190505050610aa1565b005b6102c7610be5565b6040518082815260200191505060405180910390f35b610349600480360360608110156102f357600080fd5b81019080803573ffffffffffffffffffffffffffffffffffffffff169060200190929190803573ffffffffffffffffffffffffffffffffffffffff16906020019092919080359060200190929190505050610bf6565b005b6103976004803603604081101561036157600080fd5b81019080803573ffffffffffffffffffffffffffffffffffffffff16906020019092919080359060200190929190505050610c6c565b6040518082815260200191505060405180910390f35b610419600480360360608110156103c357600080fd5b81019080803573ffffffffffffffffffffffffffffffffffffffff169060200190929190803573ffffffffffffffffffffffffffffffffffffffff16906020019092919080359060200190929190505050610cc7565b005b6104476004803603602081101561043157600080fd5b8101908080359060200190929190505050610ce7565b6040518082815260200191505060405180910390f35b6104896004803603602081101561047357600080fd5b8101908080359060200190929190505050610d0a565b604051808273ffffffffffffffffffffffffffffffffffffffff1673ffffffffffffffffffffffffffffffffffffffff16815260200191505060405180910390f35b6104d3610d41565b6040518080602001828103825283818151815260200191508051906020019080838360005b838110156105135780820151818401526020810190506104f8565b50505050905090810190601f1680156105405780820380516001836020036101000a031916815260200191505b509250505060405180910390f35b6105906004803603602081101561056457600080fd5b81019080803573ffffffffffffffffffffffffffffffffffffffff169060200190929190505050610de3565b6040518082815260200191505060405180910390f35b6105e8600480360360208110156105bc57600080fd5b81019080803573ffffffffffffffffffffffffffffffffffffffff169060200190929190505050610eb8565b604051808215151515815260200191505060405180910390f35b61060a610ed5565b6040518080602001828103825283818151815260200191508051906020019080838360005b8381101561064a57808201518184015260208101905061062f565b50505050905090810190601f1680156106775780820380516001836020036101000a031916815260200191505b509250505060405180910390f35b6106d36004803603604081101561069b57600080fd5b81019080803573ffffffffffffffffffffffffffffffffffffffff169060200190929190803515159060200190929190505050610f77565b005b6107d8600480360360808110156106eb57600080fd5b81019080803573ffffffffffffffffffffffffffffffffffffffff169060200190929190803573ffffffffffffffffffffffffffffffffffffffff169060200190929190803590602001909291908035906020019064010000000081111561075257600080fd5b82018360208201111561076457600080fd5b8035906020019184600183028401116401000000008311171561078657600080fd5b91908080601f016020809104026020016040519081016040528093929190818152602001838380828437600081840152601f19601f82011690508083019250505050505050919291929050505061112f565b005b610806600480360360208110156107f057600080fd5b81019080803590602001909291905050506111a7565b6040518080602001828103825283818151815260200191508051906020019080838360005b8381101561084657808201518184015260208101905061082b565b50505050905090810190601f1680156108735780820380516001836020036101000a031916815260200191505b509250505060405180910390f35b6108e36004803603604081101561089757600080fd5b81019080803573ffffffffffffffffffffffffffffffffffffffff169060200190929190803573ffffffffffffffffffffffffffffffffffffffff169060200190929190505050611490565b604051808215151515815260200191505060405180910390f35b6000806000837bffffffffffffffffffffffffffffffffffffffffffffffffffffffff19167bffffffffffffffffffffffffffffffffffffffffffffffffffffffff1916815260200190815260200160002060009054906101000a900460ff169050919050565b606060068054600181600116156101000203166002900480601f0160208091040260200160405190810160405280929190818152602001828054600181600116156101000203166002900480156109fc5780601f106109d1576101008083540402835291602001916109fc565b820191906000526020600020905b8154815290600101906020018083116109df57829003601f168201915b5050505050905090565b6000610a1182611524565b610a66576040517f08c379a000000000000000000000000000000000000000000000000000000000815260040180806020018281038252602c815260200180612909602c913960400191505060405180910390fd5b6004600083815260200190815260200160002060009054906101000a900473ffffffffffffffffffffffffffffffffffffffff169050919050565b6000610aac82610d0a565b90508073ffffffffffffffffffffffffffffffffffffffff168373ffffffffffffffffffffffffffffffffffffffff161415610b33576040517f08c379a000000000000000000000000000000000000000000000000000000000815260040180806020018281038252602181526020018061298d6021913960400191505060405180910390fd5b8073ffffffffffffffffffffffffffffffffffffffff16610b52611541565b73ffffffffffffffffffffffffffffffffffffffff161480610b815750610b8081610b7b611541565b611490565b5b610bd6576040517f08c379a000000000000000000000000000000000000000000000000000000000815260040180806020018281038252603881526020018061285c6038913960400191505060405180910390fd5b610be08383611549565b505050565b6000610bf16002611602565b905090565b610c07610c01611541565b82611617565b610c5c576040517f08c379a00000000000000000000000000000000000000000000000000000000081526004018080602001828103825260318152602001806129ae6031913960400191505060405180910390fd5b610c6783838361170b565b505050565b6000610cbf82600160008673ffffffffffffffffffffffffffffffffffffffff1673ffffffffffffffffffffffffffffffffffffffff16815260200190815260200160002061194e90919063ffffffff16565b905092915050565b610ce28383836040518060200160405280600081525061112f565b505050565b600080610cfe83600261196890919063ffffffff16565b50905080915050919050565b6000610d3a826040518060600160405280602981526020016128be6029913960026119979092919063ffffffff16565b9050919050565b606060098054600181600116156101000203166002900480601f016020809104026020016040519081016040528092919081815260200182805460018160011615610100020316600290048015610dd95780601f10610dae57610100808354040283529160200191610dd9565b820191906000526020600020905b815481529060010190602001808311610dbc57829003601f168201915b5050505050905090565b60008073ffffffffffffffffffffffffffffffffffffffff168273ffffffffffffffffffffffffffffffffffffffff161415610e6a576040517f08c379a000000000000000000000000000000000000000000000000000000000815260040180806020018281038252602a815260200180612894602a913960400191505060405180910390fd5b610eb1600160008473ffffffffffffffffffffffffffffffffffffffff1673ffffffffffffffffffffffffffffffffffffffff1681526020019081526020016000206119b6565b9050919050565b600080610ec36119cb565b9050610ecf83826119ed565b50919050565b606060078054600181600116156101000203166002900480601f016020809104026020016040519081016040528092919081815260200182805460018160011615610100020316600290048015610f6d5780601f10610f4257610100808354040283529160200191610f6d565b820191906000526020600020905b815481529060010190602001808311610f5057829003601f168201915b5050505050905090565b610f7f611541565b73ffffffffffffffffffffffffffffffffffffffff168273ffffffffffffffffffffffffffffffffffffffff161415611020576040517f08c379a00000000000000000000000000000000000000000000000000000000081526004018080602001828103825260198152602001807f4552433732313a20617070726f766520746f2063616c6c65720000000000000081525060200191505060405180910390fd5b806005600061102d611541565b73ffffffffffffffffffffffffffffffffffffffff1673ffffffffffffffffffffffffffffffffffffffff16815260200190815260200160002060008473ffffffffffffffffffffffffffffffffffffffff1673ffffffffffffffffffffffffffffffffffffffff16815260200190815260200160002060006101000a81548160ff0219169083151502179055508173ffffffffffffffffffffffffffffffffffffffff166110da611541565b73ffffffffffffffffffffffffffffffffffffffff167f17307eab39ab6107e8899845ad3d59bd9653f200f220920489ca2b5937696c3183604051808215151515815260200191505060405180910390a35050565b61114061113a611541565b83611617565b611195576040517f08c379a00000000000000000000000000000000000000000000000000000000081526004018080602001828103825260318152602001806129ae6031913960400191505060405180910390fd5b6111a184848484611be1565b50505050565b60606111b282611524565b611207576040517f08c379a000000000000000000000000000000000000000000000000000000000815260040180806020018281038252602f81526020018061295e602f913960400191505060405180910390fd5b6060600860008481526020019081526020016000208054600181600116156101000203166002900480601f0160208091040260200160405190810160405280929190818152602001828054600181600116156101000203166002900480156112b05780601f10611285576101008083540402835291602001916112b0565b820191906000526020600020905b81548152906001019060200180831161129357829003601f168201915b505050505090506000600980546001816001161561010002031660029004905014156112df578091505061148b565b6000815111156113b857600981604051602001808380546001816001161561010002031660029004801561134a5780601f1061132857610100808354040283529182019161134a565b820191906000526020600020905b815481529060010190602001808311611336575b505082805190602001908083835b6020831061137b5780518252602082019150602081019050602083039250611358565b6001836020036101000a0380198251168184511680821785525050505050509050019250505060405160208183030381529060405291505061148b565b60096113c384611c53565b60405160200180838054600181600116156101000203166002900480156114215780601f106113ff576101008083540402835291820191611421565b820191906000526020600020905b81548152906001019060200180831161140d575b505082805190602001908083835b60208310611452578051825260208201915060208101905060208303925061142f565b6001836020036101000a038019825116818451168082178552505050505050905001925050506040516020818303038152906040529150505b919050565b6000600560008473ffffffffffffffffffffffffffffffffffffffff1673ffffffffffffffffffffffffffffffffffffffff16815260200190815260200160002060008373ffffffffffffffffffffffffffffffffffffffff1673ffffffffffffffffffffffffffffffffffffffff16815260200190815260200160002060009054906101000a900460ff16905092915050565b600061153a826002611d8390919063ffffffff16565b9050919050565b600033905090565b816004600083815260200190815260200160002060006101000a81548173ffffffffffffffffffffffffffffffffffffffff021916908373ffffffffffffffffffffffffffffffffffffffff160217905550808273ffffffffffffffffffffffffffffffffffffffff166115bc83610d0a565b73ffffffffffffffffffffffffffffffffffffffff167f8c5be1e5ebec7d5bd14f71427d1e84f3dd0314c0f7b2291e5b200ac8c7c3b92560405160405180910390a45050565b600061161082600001611d9d565b9050919050565b600061162282611524565b611677576040517f08c379a000000000000000000000000000000000000000000000000000000000815260040180806020018281038252602c815260200180612830602c913960400191505060405180910390fd5b600061168283610d0a565b90508073ffffffffffffffffffffffffffffffffffffffff168473ffffffffffffffffffffffffffffffffffffffff1614806116f157508373ffffffffffffffffffffffffffffffffffffffff166116d984610a06565b73ffffffffffffffffffffffffffffffffffffffff16145b8061170257506117018185611490565b5b91505092915050565b8273ffffffffffffffffffffffffffffffffffffffff1661172b82610d0a565b73ffffffffffffffffffffffffffffffffffffffff1614611797576040517f08c379a00000000000000000000000000000000000000000000000000000000081526004018080602001828103825260298152602001806129356029913960400191505060405180910390fd5b600073ffffffffffffffffffffffffffffffffffffffff168273ffffffffffffffffffffffffffffffffffffffff16141561181d576040517f08c379a000000000000000000000000000000000000000000000000000000000815260040180806020018281038252602481526020018061280c6024913960400191505060405180910390fd5b611828838383611dae565b611833600082611549565b61188481600160008673ffffffffffffffffffffffffffffffffffffffff1673ffffffffffffffffffffffffffffffffffffffff168152602001908152602001600020611db390919063ffffffff16565b506118d681600160008573ffffffffffffffffffffffffffffffffffffffff1673ffffffffffffffffffffffffffffffffffffffff168152602001908152602001600020611dcd90919063ffffffff16565b506118ed81836002611de79092919063ffffffff16565b50808273ffffffffffffffffffffffffffffffffffffffff168473ffffffffffffffffffffffffffffffffffffffff167fddf252ad1be2c89b69c2b068fc378daa952ba7f163c4a11628f55a4df523b3ef60405160405180910390a4505050565b600061195d8360000183611e1c565b60001c905092915050565b60008060008061197b8660000186611e9f565b915091508160001c8160001c8090509350935050509250929050565b60006119aa846000018460001b84611f38565b60001c90509392505050565b60006119c48260000161202e565b9050919050565b60006119e860016119da610be5565b61203f90919063ffffffff16565b905090565b600073ffffffffffffffffffffffffffffffffffffffff168273ffffffffffffffffffffffffffffffffffffffff161415611a90576040517f08c379a00000000000000000000000000000000000000000000000000000000081526004018080602001828103825260208152602001807f4552433732313a206d696e7420746f20746865207a65726f206164647265737381525060200191505060405180910390fd5b611a9981611524565b15611b0c576040517f08c379a000000000000000000000000000000000000000000000000000000000815260040180806020018281038252601c8152602001807f4552433732313a20746f6b656e20616c7265616479206d696e7465640000000081525060200191505060405180910390fd5b611b1860008383611dae565b611b6981600160008573ffffffffffffffffffffffffffffffffffffffff1673ffffffffffffffffffffffffffffffffffffffff168152602001908152602001600020611dcd90919063ffffffff16565b50611b8081836002611de79092919063ffffffff16565b50808273ffffffffffffffffffffffffffffffffffffffff16600073ffffffffffffffffffffffffffffffffffffffff167fddf252ad1be2c89b69c2b068fc378daa952ba7f163c4a11628f55a4df523b3ef60405160405180910390a45050565b611bec84848461170b565b611bf8848484846120c7565b611c4d576040517f08c379a00000000000000000000000000000000000000000000000000000000081526004018080602001828103825260328152602001806127da6032913960400191505060405180910390fd5b50505050565b60606000821415611c9b576040518060400160405280600181526020017f30000000000000000000000000000000000000000000000000000000000000008152509050611d7e565b600082905060005b60008214611cc5578080600101915050600a8281611cbd57fe5b049150611ca3565b6060816040519080825280601f01601f191660200182016040528015611cfa5781602001600182028038833980820191505090505b50905060006001830390508593505b60008414611d7657600a8481611d1b57fe5b0660300160f81b82828060019003935081518110611d3557fe5b60200101907effffffffffffffffffffffffffffffffffffffffffffffffffffffffffffff1916908160001a905350600a8481611d6e57fe5b049350611d09565b819450505050505b919050565b6000611d95836000018360001b61230c565b905092915050565b600081600001805490509050919050565b505050565b6000611dc5836000018360001b61232f565b905092915050565b6000611ddf836000018360001b612417565b905092915050565b6000611e13846000018460001b8473ffffffffffffffffffffffffffffffffffffffff1660001b612487565b90509392505050565b600081836000018054905011611e7d576040517f08c379a00000000000000000000000000000000000000000000000000000000081526004018080602001828103825260228152602001806127b86022913960400191505060405180910390fd5b826000018281548110611e8c57fe5b9060005260206000200154905092915050565b60008082846000018054905011611f01576040517f08c379a00000000000000000000000000000000000000000000000000000000081526004018080602001828103825260228152602001806128e76022913960400191505060405180910390fd5b6000846000018481548110611f1257fe5b906000526020600020906002020190508060000154816001015492509250509250929050565b60008084600101600085815260200190815260200160002054905060008114158390611fff576040517f08c379a00000000000000000000000000000000000000000000000000000000081526004018080602001828103825283818151815260200191508051906020019080838360005b83811015611fc4578082015181840152602081019050611fa9565b50505050905090810190601f168015611ff15780820380516001836020036101000a031916815260200191505b509250505060405180910390fd5b5084600001600182038154811061201257fe5b9060005260206000209060020201600101549150509392505050565b600081600001805490509050919050565b6000808284019050838110156120bd576040517f08c379a000000000000000000000000000000000000000000000000000000000815260040180806020018281038252601b8152602001807f536166654d6174683a206164646974696f6e206f766572666c6f77000000000081525060200191505060405180910390fd5b8091505092915050565b60006120e88473ffffffffffffffffffffffffffffffffffffffff16612563565b6120f55760019050612304565b606061228b63150b7a0260e01b61210a611541565b888787604051602401808573ffffffffffffffffffffffffffffffffffffffff1673ffffffffffffffffffffffffffffffffffffffff1681526020018473ffffffffffffffffffffffffffffffffffffffff1673ffffffffffffffffffffffffffffffffffffffff16815260200183815260200180602001828103825283818151815260200191508051906020019080838360005b838110156121ba57808201518184015260208101905061219f565b50505050905090810190601f1680156121e75780820380516001836020036101000a031916815260200191505b5095505050505050604051602081830303815290604052907bffffffffffffffffffffffffffffffffffffffffffffffffffffffff19166020820180517bffffffffffffffffffffffffffffffffffffffffffffffffffffffff83818316178352505050506040518060600160405280603281526020016127da603291398773ffffffffffffffffffffffffffffffffffffffff166125769092919063ffffffff16565b905060008180602001905160208110156122a457600080fd5b8101908080519060200190929190505050905063150b7a0260e01b7bffffffffffffffffffffffffffffffffffffffffffffffffffffffff1916817bffffffffffffffffffffffffffffffffffffffffffffffffffffffff191614925050505b949350505050565b600080836001016000848152602001908152602001600020541415905092915050565b6000808360010160008481526020019081526020016000205490506000811461240b576000600182039050600060018660000180549050039050600086600001828154811061237a57fe5b906000526020600020015490508087600001848154811061239757fe5b90600052602060002001819055506001830187600101600083815260200190815260200160002081905550866000018054806123cf57fe5b60019003818190600052602060002001600090559055866001016000878152602001908152602001600020600090556001945050505050612411565b60009150505b92915050565b6000612423838361258e565b61247c578260000182908060018154018082558091505060019003906000526020600020016000909190919091505582600001805490508360010160008481526020019081526020016000208190555060019050612481565b600090505b92915050565b600080846001016000858152602001908152602001600020549050600081141561252e5784600001604051806040016040528086815260200185815250908060018154018082558091505060019003906000526020600020906002020160009091909190915060008201518160000155602082015181600101555050846000018054905085600101600086815260200190815260200160002081905550600191505061255c565b8285600001600183038154811061254157fe5b90600052602060002090600202016001018190555060009150505b9392505050565b600080823b905060008111915050919050565b606061258584846000856125b1565b90509392505050565b600080836001016000848152602001908152602001600020541415905092915050565b60606125bc85612563565b61262e576040517f08c379a000000000000000000000000000000000000000000000000000000000815260040180806020018281038252601d8152602001807f416464726573733a2063616c6c20746f206e6f6e2d636f6e747261637400000081525060200191505060405180910390fd5b600060608673ffffffffffffffffffffffffffffffffffffffff1685876040518082805190602001908083835b6020831061267e578051825260208201915060208101905060208303925061265b565b6001836020036101000a03801982511681845116808217855250505050505090500191505060006040518083038185875af1925050503d80600081146126e0576040519150601f19603f3d011682016040523d82523d6000602084013e6126e5565b606091505b509150915081156126fa5780925050506127af565b60008151111561270d5780518082602001fd5b836040517f08c379a00000000000000000000000000000000000000000000000000000000081526004018080602001828103825283818151815260200191508051906020019080838360005b83811015612774578082015181840152602081019050612759565b50505050905090810190601f1680156127a15780820380516001836020036101000a031916815260200191505b509250505060405180910390fd5b94935050505056fe456e756d657261626c655365743a20696e646578206f7574206f6620626f756e64734552433732313a207472616e7366657220746f206e6f6e20455243373231526563656976657220696d706c656d656e7465724552433732313a207472616e7366657220746f20746865207a65726f20616464726573734552433732313a206f70657261746f7220717565727920666f72206e6f6e6578697374656e7420746f6b656e4552433732313a20617070726f76652063616c6c6572206973206e6f74206f776e6572206e6f7220617070726f76656420666f7220616c6c4552433732313a2062616c616e636520717565727920666f7220746865207a65726f20616464726573734552433732313a206f776e657220717565727920666f72206e6f6e6578697374656e7420746f6b656e456e756d657261626c654d61703a20696e646578206f7574206f6620626f756e64734552433732313a20617070726f76656420717565727920666f72206e6f6e6578697374656e7420746f6b656e4552433732313a207472616e73666572206f6620746f6b656e2074686174206973206e6f74206f776e4552433732314d657461646174613a2055524920717565727920666f72206e6f6e6578697374656e7420746f6b656e4552433732313a20617070726f76616c20746f2063757272656e74206f776e65724552433732313a207472616e736665722063616c6c6572206973206e6f74206f776e6572206e6f7220617070726f766564a2646970667358221220e6126d4e7a8163d21d211f65707077d5d625cf9c451adfb3f1181eb653d6095064736f6c63430006020033a2646970667358221220a416d07f03a31156487c0f7dea13b090859caf994e02cb56db0e0a596087114164736f6c63430006020033",
  "source": "pragma solidity ^0.6.0;\n\nimport \"openzeppelin-solidity/contracts/token/ERC721/ERC721.sol\";\n\ncontract NFT is ERC721 {\n    constructor(string memory _name, string memory _symbol) ERC721(_name, _symbol) public {\n    }\n\n    function mintTo(address recipient) public returns (bool) {\n       uint256 newTokenId = _getNextTokenId();\n      _mint(recipient, newTokenId);\n    }\n\n    function _getNextTokenId() private view returns (uint256) {\n      return totalSupply().add(1);\n    }\n}\n\ncontract ContractFactory {\n\n    address[] public contracts;\n    address public lastContractAddress;\n\n    function getContractCount() public view returns(uint contractCount) {\n      return contracts.length;\n    }\n\n    function deploy(string memory name, string memory symbol) public returns(address newContract){\n      NFT c = new NFT(name, symbol);\n      address cAddr = address(c);\n      contracts.push(cAddr);\n      lastContractAddress = cAddr;\n\n      return cAddr;\n    }\n    function mint(NFT tokenAddress) public {\n      tokenAddress.mintTo(msg.sender);\n    }\n}\n",
  "sourcePath": "/Users/hdahme/Projects/dapps/nft-factory/contracts/NFTFactory.sol",
  "compiler": {
    "name": "solc",
    "version": "0.6.2+commit.bacdbe57.Emscripten.clang"
  },
  "schemaVersion": "3.3.2",
  "updatedAt": "2020-11-09T16:29:51.534Z",
  "devdoc": {
    "methods": {}
  },
  "userdoc": {
    "methods": {}
  }
}