{
  "contractName": "NFTFactory",
  "abi": [
    {
      "anonymous": false,
      "inputs": [
        {
          "indexed": true,
          "internalType": "address",
          "name": "previousOwner",
          "type": "address"
        },
        {
          "indexed": true,
          "internalType": "address",
          "name": "newOwner",
          "type": "address"
        }
      ],
      "name": "OwnershipTransferred",
      "type": "event"
    },
    {
      "anonymous": false,
      "inputs": [
        {
          "indexed": true,
          "internalType": "address",
          "name": "addr",
          "type": "address"
        },
        {
          "indexed": true,
          "internalType": "string",
          "name": "name",
          "type": "string"
        },
        {
          "indexed": true,
          "internalType": "string",
          "name": "symbol",
          "type": "string"
        },
        {
          "indexed": false,
          "internalType": "string",
          "name": "tokenURI",
          "type": "string"
        }
      ],
      "name": "deployedNFT",
      "type": "event"
    },
    {
      "inputs": [],
      "name": "bondedContract",
      "outputs": [
        {
          "internalType": "address",
          "name": "",
          "type": "address"
        }
      ],
      "stateMutability": "view",
      "type": "function",
      "constant": true
    },
    {
      "inputs": [
        {
          "internalType": "uint256",
          "name": "",
          "type": "uint256"
        }
      ],
      "name": "contracts",
      "outputs": [
        {
          "internalType": "address",
          "name": "",
          "type": "address"
        }
      ],
      "stateMutability": "view",
      "type": "function",
      "constant": true
    },
    {
      "inputs": [],
      "name": "lastContractAddress",
      "outputs": [
        {
          "internalType": "address",
          "name": "",
          "type": "address"
        }
      ],
      "stateMutability": "view",
      "type": "function",
      "constant": true
    },
    {
      "inputs": [
        {
          "internalType": "address",
          "name": "",
          "type": "address"
        }
      ],
      "name": "ownedContracts",
      "outputs": [
        {
          "internalType": "bool",
          "name": "",
          "type": "bool"
        }
      ],
      "stateMutability": "view",
      "type": "function",
      "constant": true
    },
    {
      "inputs": [],
      "name": "owner",
      "outputs": [
        {
          "internalType": "address",
          "name": "",
          "type": "address"
        }
      ],
      "stateMutability": "view",
      "type": "function",
      "constant": true
    },
    {
      "inputs": [],
      "name": "renounceOwnership",
      "outputs": [],
      "stateMutability": "nonpayable",
      "type": "function"
    },
    {
      "inputs": [
        {
          "internalType": "address",
          "name": "newOwner",
          "type": "address"
        }
      ],
      "name": "transferOwnership",
      "outputs": [],
      "stateMutability": "nonpayable",
      "type": "function"
    },
    {
      "inputs": [
        {
          "internalType": "address",
          "name": "_a",
          "type": "address"
        }
      ],
      "name": "bondContract",
      "outputs": [
        {
          "internalType": "bool",
          "name": "",
          "type": "bool"
        }
      ],
      "stateMutability": "nonpayable",
      "type": "function"
    },
    {
      "inputs": [],
      "name": "getContractCount",
      "outputs": [
        {
          "internalType": "uint256",
          "name": "contractCount",
          "type": "uint256"
        }
      ],
      "stateMutability": "view",
      "type": "function",
      "constant": true
    },
    {
      "inputs": [
        {
          "internalType": "string",
          "name": "name",
          "type": "string"
        },
        {
          "internalType": "string",
          "name": "symbol",
          "type": "string"
        },
        {
          "internalType": "string",
          "name": "tokenURI",
          "type": "string"
        }
      ],
      "name": "deployNFT",
      "outputs": [
        {
          "internalType": "contract NFT",
          "name": "newContract",
          "type": "address"
        }
      ],
      "stateMutability": "nonpayable",
      "type": "function"
    },
    {
      "inputs": [
        {
          "internalType": "contract NFT",
          "name": "_nft",
          "type": "address"
        },
        {
          "internalType": "address",
          "name": "recipient",
          "type": "address"
        }
      ],
      "name": "mint",
      "outputs": [],
      "stateMutability": "nonpayable",
      "type": "function"
    }
  ],
  "bytecode": "0x608060405260006100146100b760201b60201c565b9050806000806101000a81548173ffffffffffffffffffffffffffffffffffffffff021916908373ffffffffffffffffffffffffffffffffffffffff1602179055508073ffffffffffffffffffffffffffffffffffffffff16600073ffffffffffffffffffffffffffffffffffffffff167f8be0079c531659141344cd1fd0a4f28419497f9722a3daafe3b4186f6b6457e060405160405180910390a3506100bf565b600033905090565b615595806100ce6000396000f3fe60806040523480156200001157600080fd5b5060043610620000b85760003560e01c80638da5cb5b116200007b5780638da5cb5b146200041a5780639399869d1462000466578063bf184f931462000486578063e8e1140914620004d2578063ee1fe2ad1462000531578063f2fde38b146200059857620000b8565b806324705db314620000bd57806332709738146200011c578063474da79a1462000168578063715018a614620001d95780637309fe2214620001e5575b600080fd5b6200010260048036036020811015620000d557600080fd5b81019080803573ffffffffffffffffffffffffffffffffffffffff169060200190929190505050620005df565b604051808215151515815260200191505060405180910390f35b62000126620006f7565b604051808273ffffffffffffffffffffffffffffffffffffffff1673ffffffffffffffffffffffffffffffffffffffff16815260200191505060405180910390f35b62000197600480360360208110156200018057600080fd5b81019080803590602001909291905050506200071d565b604051808273ffffffffffffffffffffffffffffffffffffffff1673ffffffffffffffffffffffffffffffffffffffff16815260200191505060405180910390f35b620001e36200075a565b005b620003d860048036036060811015620001fd57600080fd5b81019080803590602001906401000000008111156200021b57600080fd5b8201836020820111156200022e57600080fd5b803590602001918460018302840111640100000000831117156200025157600080fd5b91908080601f016020809104026020016040519081016040528093929190818152602001838380828437600081840152601f19601f82011690508083019250505050505050919291929080359060200190640100000000811115620002b557600080fd5b820183602082011115620002c857600080fd5b80359060200191846001830284011164010000000083111715620002eb57600080fd5b91908080601f016020809104026020016040519081016040528093929190818152602001838380828437600081840152601f19601f820116905080830192505050505050509192919290803590602001906401000000008111156200034f57600080fd5b8201836020820111156200036257600080fd5b803590602001918460018302840111640100000000831117156200038557600080fd5b91908080601f016020809104026020016040519081016040528093929190818152602001838380828437600081840152601f19601f820116905080830192505050505050509192919290505050620008e5565b604051808273ffffffffffffffffffffffffffffffffffffffff1673ffffffffffffffffffffffffffffffffffffffff16815260200191505060405180910390f35b6200042462000ddb565b604051808273ffffffffffffffffffffffffffffffffffffffff1673ffffffffffffffffffffffffffffffffffffffff16815260200191505060405180910390f35b6200047062000e04565b6040518082815260200191505060405180910390f35b6200049062000e11565b604051808273ffffffffffffffffffffffffffffffffffffffff1673ffffffffffffffffffffffffffffffffffffffff16815260200191505060405180910390f35b6200051760048036036020811015620004ea57600080fd5b81019080803573ffffffffffffffffffffffffffffffffffffffff16906020019092919050505062000e37565b604051808215151515815260200191505060405180910390f35b62000596600480360360408110156200054957600080fd5b81019080803573ffffffffffffffffffffffffffffffffffffffff169060200190929190803573ffffffffffffffffffffffffffffffffffffffff16906020019092919050505062000e57565b005b620005dd60048036036020811015620005b057600080fd5b81019080803573ffffffffffffffffffffffffffffffffffffffff16906020019092919050505062000f9c565b005b6000620005eb620011ae565b73ffffffffffffffffffffffffffffffffffffffff166000809054906101000a900473ffffffffffffffffffffffffffffffffffffffff1673ffffffffffffffffffffffffffffffffffffffff1614620006ad576040517f08c379a00000000000000000000000000000000000000000000000000000000081526004018080602001828103825260208152602001807f4f776e61626c653a2063616c6c6572206973206e6f7420746865206f776e657281525060200191505060405180910390fd5b81600360006101000a81548173ffffffffffffffffffffffffffffffffffffffff021916908373ffffffffffffffffffffffffffffffffffffffff16021790555060019050919050565b600260009054906101000a900473ffffffffffffffffffffffffffffffffffffffff1681565b600181815481106200072b57fe5b906000526020600020016000915054906101000a900473ffffffffffffffffffffffffffffffffffffffff1681565b62000764620011ae565b73ffffffffffffffffffffffffffffffffffffffff166000809054906101000a900473ffffffffffffffffffffffffffffffffffffffff1673ffffffffffffffffffffffffffffffffffffffff161462000826576040517f08c379a00000000000000000000000000000000000000000000000000000000081526004018080602001828103825260208152602001807f4f776e61626c653a2063616c6c6572206973206e6f7420746865206f776e657281525060200191505060405180910390fd5b600073ffffffffffffffffffffffffffffffffffffffff166000809054906101000a900473ffffffffffffffffffffffffffffffffffffffff1673ffffffffffffffffffffffffffffffffffffffff167f8be0079c531659141344cd1fd0a4f28419497f9722a3daafe3b4186f6b6457e060405160405180910390a360008060006101000a81548173ffffffffffffffffffffffffffffffffffffffff021916908373ffffffffffffffffffffffffffffffffffffffff160217905550565b6000620008f162000ddb565b73ffffffffffffffffffffffffffffffffffffffff163373ffffffffffffffffffffffffffffffffffffffff161480620009785750600360009054906101000a900473ffffffffffffffffffffffffffffffffffffffff1673ffffffffffffffffffffffffffffffffffffffff163373ffffffffffffffffffffffffffffffffffffffff16145b620009cf576040517f08c379a0000000000000000000000000000000000000000000000000000000008152600401808060200182810382526035815260200180620055056035913960400191505060405180910390fd5b6000848484604051620009e290620011b6565b80806020018060200180602001848103845287818151815260200191508051906020019080838360005b8381101562000a2957808201518184015260208101905062000a0c565b50505050905090810190601f16801562000a575780820380516001836020036101000a031916815260200191505b50848103835286818151815260200191508051906020019080838360005b8381101562000a9257808201518184015260208101905062000a75565b50505050905090810190601f16801562000ac05780820380516001836020036101000a031916815260200191505b50848103825285818151815260200191508051906020019080838360005b8381101562000afb57808201518184015260208101905062000ade565b50505050905090810190601f16801562000b295780820380516001836020036101000a031916815260200191505b509650505050505050604051809103906000f08015801562000b4f573d6000803e3d6000fd5b50905060008190506001819080600181540180825580915050600190039060005260206000200160009091909190916101000a81548173ffffffffffffffffffffffffffffffffffffffff021916908373ffffffffffffffffffffffffffffffffffffffff16021790555080600260006101000a81548173ffffffffffffffffffffffffffffffffffffffff021916908373ffffffffffffffffffffffffffffffffffffffff1602179055506001600460008373ffffffffffffffffffffffffffffffffffffffff1673ffffffffffffffffffffffffffffffffffffffff16815260200190815260200160002060006101000a81548160ff021916908315150217905550846040518082805190602001908083835b6020831062000c89578051825260208201915060208101905060208303925062000c64565b6001836020036101000a0380198251168184511680821785525050505050509050019150506040518091039020866040518082805190602001908083835b6020831062000cec578051825260208201915060208101905060208303925062000cc7565b6001836020036101000a03801982511681845116808217855250505050505090500191505060405180910390208273ffffffffffffffffffffffffffffffffffffffff167fc83f27734103ac72318312a9b5b4b8e12526b84aa39511b712d5667ae11e551f876040518080602001828103825283818151815260200191508051906020019080838360005b8381101562000d9457808201518184015260208101905062000d77565b50505050905090810190601f16801562000dc25780820380516001836020036101000a031916815260200191505b509250505060405180910390a481925050509392505050565b60008060009054906101000a900473ffffffffffffffffffffffffffffffffffffffff16905090565b6000600180549050905090565b600360009054906101000a900473ffffffffffffffffffffffffffffffffffffffff1681565b60046020528060005260406000206000915054906101000a900460ff1681565b600360009054906101000a900473ffffffffffffffffffffffffffffffffffffffff1673ffffffffffffffffffffffffffffffffffffffff163373ffffffffffffffffffffffffffffffffffffffff161462000eff576040517f08c379a0000000000000000000000000000000000000000000000000000000008152600401808060200182810382526028815260200180620054dd6028913960400191505060405180910390fd5b8173ffffffffffffffffffffffffffffffffffffffff16636a627842826040518263ffffffff1660e01b8152600401808273ffffffffffffffffffffffffffffffffffffffff1673ffffffffffffffffffffffffffffffffffffffff168152602001915050600060405180830381600087803b15801562000f7f57600080fd5b505af115801562000f94573d6000803e3d6000fd5b505050505050565b62000fa6620011ae565b73ffffffffffffffffffffffffffffffffffffffff166000809054906101000a900473ffffffffffffffffffffffffffffffffffffffff1673ffffffffffffffffffffffffffffffffffffffff161462001068576040517f08c379a00000000000000000000000000000000000000000000000000000000081526004018080602001828103825260208152602001807f4f776e61626c653a2063616c6c6572206973206e6f7420746865206f776e657281525060200191505060405180910390fd5b600073ffffffffffffffffffffffffffffffffffffffff168173ffffffffffffffffffffffffffffffffffffffff161415620010f0576040517f08c379a00000000000000000000000000000000000000000000000000000000081526004018080602001828103825260268152602001806200553a6026913960400191505060405180910390fd5b8073ffffffffffffffffffffffffffffffffffffffff166000809054906101000a900473ffffffffffffffffffffffffffffffffffffffff1673ffffffffffffffffffffffffffffffffffffffff167f8be0079c531659141344cd1fd0a4f28419497f9722a3daafe3b4186f6b6457e060405160405180910390a3806000806101000a81548173ffffffffffffffffffffffffffffffffffffffff021916908373ffffffffffffffffffffffffffffffffffffffff16021790555050565b600033905090565b61431880620011c58339019056fe60806040523480156200001157600080fd5b506040516200431838038062004318833981810160405260608110156200003757600080fd5b81019080805160405193929190846401000000008211156200005857600080fd5b838201915060208201858111156200006f57600080fd5b82518660018202830111640100000000821117156200008d57600080fd5b8083526020830192505050908051906020019080838360005b83811015620000c3578082015181840152602081019050620000a6565b50505050905090810190601f168015620000f15780820380516001836020036101000a031916815260200191505b50604052602001805160405193929190846401000000008211156200011557600080fd5b838201915060208201858111156200012c57600080fd5b82518660018202830111640100000000821117156200014a57600080fd5b8083526020830192505050908051906020019080838360005b838110156200018057808201518184015260208101905062000163565b50505050905090810190601f168015620001ae5780820380516001836020036101000a031916815260200191505b5060405260200180516040519392919084640100000000821115620001d257600080fd5b83820191506020820185811115620001e957600080fd5b82518660018202830111640100000000821117156200020757600080fd5b8083526020830192505050908051906020019080838360005b838110156200023d57808201518184015260208101905062000220565b50505050905090810190601f1680156200026b5780820380516001836020036101000a031916815260200191505b5060405250505082828282826200028f6301ffc9a760e01b6200041360201b60201c565b8160079080519060200190620002a7929190620006ce565b508060089080519060200190620002c0929190620006ce565b50620002d96380ac58cd60e01b6200041360201b60201c565b620002f1635b5e139f60e01b6200041360201b60201c565b6200030963780e9d6360e01b6200041360201b60201c565b50506000600b60006101000a81548160ff0219169083151502179055506200034a6000801b6200033e6200051c60201b60201c565b6200052460201b60201c565b620003a060405180807f4d494e5445525f524f4c45000000000000000000000000000000000000000000815250600b0190506040518091039020620003946200051c60201b60201c565b6200052460201b60201c565b620003f660405180807f5041555345525f524f4c45000000000000000000000000000000000000000000815250600b0190506040518091039020620003ea6200051c60201b60201c565b6200052460201b60201c565b62000407816200053a60201b60201c565b5050505050506200077d565b63ffffffff60e01b817bffffffffffffffffffffffffffffffffffffffffffffffffffffffff19161415620004b0576040517f08c379a000000000000000000000000000000000000000000000000000000000815260040180806020018281038252601c8152602001807f4552433136353a20696e76616c696420696e746572666163652069640000000081525060200191505060405180910390fd5b6001806000837bffffffffffffffffffffffffffffffffffffffffffffffffffffffff19167bffffffffffffffffffffffffffffffffffffffffffffffffffffffff1916815260200190815260200160002060006101000a81548160ff02191690831515021790555050565b600033905090565b6200053682826200055660201b60201c565b5050565b80600a908051906020019062000552929190620006ce565b5050565b6200058481600080858152602001908152602001600020600001620005f960201b62002c041790919060201c565b15620005f5576200059a6200051c60201b60201c565b73ffffffffffffffffffffffffffffffffffffffff168173ffffffffffffffffffffffffffffffffffffffff16837f2f8788117e7eff1d82e926ec794901d17c78024a50270940304540a733656f0d60405160405180910390a45b5050565b600062000629836000018373ffffffffffffffffffffffffffffffffffffffff1660001b6200063160201b60201c565b905092915050565b6000620006458383620006ab60201b60201c565b620006a0578260000182908060018154018082558091505060019003906000526020600020016000909190919091505582600001805490508360010160008481526020019081526020016000208190555060019050620006a5565b600090505b92915050565b600080836001016000848152602001908152602001600020541415905092915050565b828054600181600116156101000203166002900490600052602060002090601f016020900481019282601f106200071157805160ff191683800117855562000742565b8280016001018555821562000742579182015b828111156200074157825182559160200191906001019062000724565b5b50905062000751919062000755565b5090565b6200077a91905b80821115620007765760008160009055506001016200075c565b5090565b90565b613b8b806200078d6000396000f3fe608060405234801561001057600080fd5b50600436106101f05760003560e01c80636a6278421161010f578063a22cb465116100a2578063d539139311610071578063d539139314610bc3578063d547741f14610be1578063e63ab1e914610c2f578063e985e9c514610c4d576101f0565b8063a22cb46514610985578063b88d4fde146109d5578063c87b56dd14610ada578063ca15c87314610b81576101f0565b80639010d07c116100de5780639010d07c1461080657806391d148541461087e57806395d89b41146108e4578063a217fddf14610967576101f0565b80636a627842146106dd5780636c0360eb1461072157806370a08231146107a45780638456cb59146107fc576101f0565b80632f745c591161018757806342966c681161015657806342966c68146105dd5780634f6ccce71461060b5780635c975abb1461064d5780636352211e1461066f576101f0565b80632f745c59146104b557806336568abe146105175780633f4ba83a1461056557806342842e0e1461056f576101f0565b806318160ddd116101c357806318160ddd1461039957806323b872dd146103b7578063248a9ca3146104255780632f2ff15d14610467576101f0565b806301ffc9a7146101f557806306fdde031461025a578063081812fc146102dd578063095ea7b31461034b575b600080fd5b6102406004803603602081101561020b57600080fd5b8101908080357bffffffffffffffffffffffffffffffffffffffffffffffffffffffff19169060200190929190505050610cc9565b604051808215151515815260200191505060405180910390f35b610262610d31565b6040518080602001828103825283818151815260200191508051906020019080838360005b838110156102a2578082015181840152602081019050610287565b50505050905090810190601f1680156102cf5780820380516001836020036101000a031916815260200191505b509250505060405180910390f35b610309600480360360208110156102f357600080fd5b8101908080359060200190929190505050610dd3565b604051808273ffffffffffffffffffffffffffffffffffffffff1673ffffffffffffffffffffffffffffffffffffffff16815260200191505060405180910390f35b6103976004803603604081101561036157600080fd5b81019080803573ffffffffffffffffffffffffffffffffffffffff16906020019092919080359060200190929190505050610e6e565b005b6103a1610fb2565b6040518082815260200191505060405180910390f35b610423600480360360608110156103cd57600080fd5b81019080803573ffffffffffffffffffffffffffffffffffffffff169060200190929190803573ffffffffffffffffffffffffffffffffffffffff16906020019092919080359060200190929190505050610fc3565b005b6104516004803603602081101561043b57600080fd5b8101908080359060200190929190505050611039565b6040518082815260200191505060405180910390f35b6104b36004803603604081101561047d57600080fd5b8101908080359060200190929190803573ffffffffffffffffffffffffffffffffffffffff169060200190929190505050611058565b005b610501600480360360408110156104cb57600080fd5b81019080803573ffffffffffffffffffffffffffffffffffffffff169060200190929190803590602001909291905050506110e1565b6040518082815260200191505060405180910390f35b6105636004803603604081101561052d57600080fd5b8101908080359060200190929190803573ffffffffffffffffffffffffffffffffffffffff16906020019092919050505061113c565b005b61056d6111d5565b005b6105db6004803603606081101561058557600080fd5b81019080803573ffffffffffffffffffffffffffffffffffffffff169060200190929190803573ffffffffffffffffffffffffffffffffffffffff1690602001909291908035906020019092919050505061127a565b005b610609600480360360208110156105f357600080fd5b810190808035906020019092919050505061129a565b005b6106376004803603602081101561062157600080fd5b810190808035906020019092919050505061130c565b6040518082815260200191505060405180910390f35b61065561132f565b604051808215151515815260200191505060405180910390f35b61069b6004803603602081101561068557600080fd5b8101908080359060200190929190505050611346565b604051808273ffffffffffffffffffffffffffffffffffffffff1673ffffffffffffffffffffffffffffffffffffffff16815260200191505060405180910390f35b61071f600480360360208110156106f357600080fd5b81019080803573ffffffffffffffffffffffffffffffffffffffff16906020019092919050505061137d565b005b610729611438565b6040518080602001828103825283818151815260200191508051906020019080838360005b8381101561076957808201518184015260208101905061074e565b50505050905090810190601f1680156107965780820380516001836020036101000a031916815260200191505b509250505060405180910390f35b6107e6600480360360208110156107ba57600080fd5b81019080803573ffffffffffffffffffffffffffffffffffffffff1690602001909291905050506114da565b6040518082815260200191505060405180910390f35b6108046115af565b005b61083c6004803603604081101561081c57600080fd5b810190808035906020019092919080359060200190929190505050611654565b604051808273ffffffffffffffffffffffffffffffffffffffff1673ffffffffffffffffffffffffffffffffffffffff16815260200191505060405180910390f35b6108ca6004803603604081101561089457600080fd5b8101908080359060200190929190803573ffffffffffffffffffffffffffffffffffffffff169060200190929190505050611685565b604051808215151515815260200191505060405180910390f35b6108ec6116b6565b6040518080602001828103825283818151815260200191508051906020019080838360005b8381101561092c578082015181840152602081019050610911565b50505050905090810190601f1680156109595780820380516001836020036101000a031916815260200191505b509250505060405180910390f35b61096f611758565b6040518082815260200191505060405180910390f35b6109d36004803603604081101561099b57600080fd5b81019080803573ffffffffffffffffffffffffffffffffffffffff16906020019092919080351515906020019092919050505061175f565b005b610ad8600480360360808110156109eb57600080fd5b81019080803573ffffffffffffffffffffffffffffffffffffffff169060200190929190803573ffffffffffffffffffffffffffffffffffffffff1690602001909291908035906020019092919080359060200190640100000000811115610a5257600080fd5b820183602082011115610a6457600080fd5b80359060200191846001830284011164010000000083111715610a8657600080fd5b91908080601f016020809104026020016040519081016040528093929190818152602001838380828437600081840152601f19601f820116905080830192505050505050509192919290505050611917565b005b610b0660048036036020811015610af057600080fd5b810190808035906020019092919050505061198f565b6040518080602001828103825283818151815260200191508051906020019080838360005b83811015610b46578082015181840152602081019050610b2b565b50505050905090810190601f168015610b735780820380516001836020036101000a031916815260200191505b509250505060405180910390f35b610bad60048036036020811015610b9757600080fd5b8101908080359060200190929190505050611c78565b6040518082815260200191505060405180910390f35b610bcb611c9e565b6040518082815260200191505060405180910390f35b610c2d60048036036040811015610bf757600080fd5b8101908080359060200190929190803573ffffffffffffffffffffffffffffffffffffffff169060200190929190505050611cd7565b005b610c37611d60565b6040518082815260200191505060405180910390f35b610caf60048036036040811015610c6357600080fd5b81019080803573ffffffffffffffffffffffffffffffffffffffff169060200190929190803573ffffffffffffffffffffffffffffffffffffffff169060200190929190505050611d99565b604051808215151515815260200191505060405180910390f35b600060016000837bffffffffffffffffffffffffffffffffffffffffffffffffffffffff19167bffffffffffffffffffffffffffffffffffffffffffffffffffffffff1916815260200190815260200160002060009054906101000a900460ff169050919050565b606060078054600181600116156101000203166002900480601f016020809104026020016040519081016040528092919081815260200182805460018160011615610100020316600290048015610dc95780601f10610d9e57610100808354040283529160200191610dc9565b820191906000526020600020905b815481529060010190602001808311610dac57829003601f168201915b5050505050905090565b6000610dde82611e2d565b610e33576040517f08c379a000000000000000000000000000000000000000000000000000000000815260040180806020018281038252602c8152602001806139a4602c913960400191505060405180910390fd5b6005600083815260200190815260200160002060009054906101000a900473ffffffffffffffffffffffffffffffffffffffff169050919050565b6000610e7982611346565b90508073ffffffffffffffffffffffffffffffffffffffff168373ffffffffffffffffffffffffffffffffffffffff161415610f00576040517f08c379a0000000000000000000000000000000000000000000000000000000008152600401808060200182810382526021815260200180613a286021913960400191505060405180910390fd5b8073ffffffffffffffffffffffffffffffffffffffff16610f1f611e4a565b73ffffffffffffffffffffffffffffffffffffffff161480610f4e5750610f4d81610f48611e4a565b611d99565b5b610fa3576040517f08c379a00000000000000000000000000000000000000000000000000000000081526004018080602001828103825260388152602001806138f76038913960400191505060405180910390fd5b610fad8383611e52565b505050565b6000610fbe6003611f0b565b905090565b610fd4610fce611e4a565b82611f20565b611029576040517f08c379a0000000000000000000000000000000000000000000000000000000008152600401808060200182810382526031815260200180613a496031913960400191505060405180910390fd5b611034838383612014565b505050565b6000806000838152602001908152602001600020600201549050919050565b61107e60008084815260200190815260200160002060020154611079611e4a565b611685565b6110d3576040517f08c379a000000000000000000000000000000000000000000000000000000000815260040180806020018281038252602f8152602001806137d8602f913960400191505060405180910390fd5b6110dd8282612257565b5050565b600061113482600260008673ffffffffffffffffffffffffffffffffffffffff1673ffffffffffffffffffffffffffffffffffffffff1681526020019081526020016000206122ea90919063ffffffff16565b905092915050565b611144611e4a565b73ffffffffffffffffffffffffffffffffffffffff168173ffffffffffffffffffffffffffffffffffffffff16146111c7576040517f08c379a000000000000000000000000000000000000000000000000000000000815260040180806020018281038252602f815260200180613b27602f913960400191505060405180910390fd5b6111d18282612304565b5050565b61121b60405180807f5041555345525f524f4c45000000000000000000000000000000000000000000815250600b0190506040518091039020611216611e4a565b611685565b611270576040517f08c379a0000000000000000000000000000000000000000000000000000000008152600401808060200182810382526040815260200180613ae76040913960400191505060405180910390fd5b611278612397565b565b61129583838360405180602001604052806000815250611917565b505050565b6112ab6112a5611e4a565b82611f20565b611300576040517f08c379a0000000000000000000000000000000000000000000000000000000008152600401808060200182810382526030815260200180613ab76030913960400191505060405180910390fd5b611309816124a0565b50565b6000806113238360036125da90919063ffffffff16565b50905080915050919050565b6000600b60009054906101000a900460ff16905090565b6000611376826040518060600160405280602981526020016139596029913960036126099092919063ffffffff16565b9050919050565b6113c360405180807f4d494e5445525f524f4c45000000000000000000000000000000000000000000815250600b01905060405180910390206113be611e4a565b611685565b611418576040517f08c379a000000000000000000000000000000000000000000000000000000000815260040180806020018281038252603d815260200180613a7a603d913960400191505060405180910390fd5b61142b81611426600c612628565b612636565b611435600c61282a565b50565b6060600a8054600181600116156101000203166002900480601f0160208091040260200160405190810160405280929190818152602001828054600181600116156101000203166002900480156114d05780601f106114a5576101008083540402835291602001916114d0565b820191906000526020600020905b8154815290600101906020018083116114b357829003601f168201915b5050505050905090565b60008073ffffffffffffffffffffffffffffffffffffffff168273ffffffffffffffffffffffffffffffffffffffff161415611561576040517f08c379a000000000000000000000000000000000000000000000000000000000815260040180806020018281038252602a81526020018061392f602a913960400191505060405180910390fd5b6115a8600260008473ffffffffffffffffffffffffffffffffffffffff1673ffffffffffffffffffffffffffffffffffffffff168152602001908152602001600020612840565b9050919050565b6115f560405180807f5041555345525f524f4c45000000000000000000000000000000000000000000815250600b01905060405180910390206115f0611e4a565b611685565b61164a576040517f08c379a000000000000000000000000000000000000000000000000000000000815260040180806020018281038252603e815260200180613839603e913960400191505060405180910390fd5b611652612855565b565b600061167d8260008086815260200190815260200160002060000161295f90919063ffffffff16565b905092915050565b60006116ae8260008086815260200190815260200160002060000161297990919063ffffffff16565b905092915050565b606060088054600181600116156101000203166002900480601f01602080910402602001604051908101604052809291908181526020018280546001816001161561010002031660029004801561174e5780601f106117235761010080835404028352916020019161174e565b820191906000526020600020905b81548152906001019060200180831161173157829003601f168201915b5050505050905090565b6000801b81565b611767611e4a565b73ffffffffffffffffffffffffffffffffffffffff168273ffffffffffffffffffffffffffffffffffffffff161415611808576040517f08c379a00000000000000000000000000000000000000000000000000000000081526004018080602001828103825260198152602001807f4552433732313a20617070726f766520746f2063616c6c65720000000000000081525060200191505060405180910390fd5b8060066000611815611e4a565b73ffffffffffffffffffffffffffffffffffffffff1673ffffffffffffffffffffffffffffffffffffffff16815260200190815260200160002060008473ffffffffffffffffffffffffffffffffffffffff1673ffffffffffffffffffffffffffffffffffffffff16815260200190815260200160002060006101000a81548160ff0219169083151502179055508173ffffffffffffffffffffffffffffffffffffffff166118c2611e4a565b73ffffffffffffffffffffffffffffffffffffffff167f17307eab39ab6107e8899845ad3d59bd9653f200f220920489ca2b5937696c3183604051808215151515815260200191505060405180910390a35050565b611928611922611e4a565b83611f20565b61197d576040517f08c379a0000000000000000000000000000000000000000000000000000000008152600401808060200182810382526031815260200180613a496031913960400191505060405180910390fd5b611989848484846129a9565b50505050565b606061199a82611e2d565b6119ef576040517f08c379a000000000000000000000000000000000000000000000000000000000815260040180806020018281038252602f8152602001806139f9602f913960400191505060405180910390fd5b6060600960008481526020019081526020016000208054600181600116156101000203166002900480601f016020809104026020016040519081016040528092919081815260200182805460018160011615610100020316600290048015611a985780601f10611a6d57610100808354040283529160200191611a98565b820191906000526020600020905b815481529060010190602001808311611a7b57829003601f168201915b505050505090506000600a8054600181600116156101000203166002900490501415611ac75780915050611c73565b600081511115611ba057600a816040516020018083805460018160011615610100020316600290048015611b325780601f10611b10576101008083540402835291820191611b32565b820191906000526020600020905b815481529060010190602001808311611b1e575b505082805190602001908083835b60208310611b635780518252602082019150602081019050602083039250611b40565b6001836020036101000a03801982511681845116808217855250505050505090500192505050604051602081830303815290604052915050611c73565b600a611bab84612a1b565b6040516020018083805460018160011615610100020316600290048015611c095780601f10611be7576101008083540402835291820191611c09565b820191906000526020600020905b815481529060010190602001808311611bf5575b505082805190602001908083835b60208310611c3a5780518252602082019150602081019050602083039250611c17565b6001836020036101000a038019825116818451168082178552505050505050905001925050506040516020818303038152906040529150505b919050565b6000611c97600080848152602001908152602001600020600001612b4b565b9050919050565b60405180807f4d494e5445525f524f4c45000000000000000000000000000000000000000000815250600b019050604051809103902081565b611cfd60008084815260200190815260200160002060020154611cf8611e4a565b611685565b611d52576040517f08c379a00000000000000000000000000000000000000000000000000000000081526004018080602001828103825260308152602001806138c76030913960400191505060405180910390fd5b611d5c8282612304565b5050565b60405180807f5041555345525f524f4c45000000000000000000000000000000000000000000815250600b019050604051809103902081565b6000600660008473ffffffffffffffffffffffffffffffffffffffff1673ffffffffffffffffffffffffffffffffffffffff16815260200190815260200160002060008373ffffffffffffffffffffffffffffffffffffffff1673ffffffffffffffffffffffffffffffffffffffff16815260200190815260200160002060009054906101000a900460ff16905092915050565b6000611e43826003612b6090919063ffffffff16565b9050919050565b600033905090565b816005600083815260200190815260200160002060006101000a81548173ffffffffffffffffffffffffffffffffffffffff021916908373ffffffffffffffffffffffffffffffffffffffff160217905550808273ffffffffffffffffffffffffffffffffffffffff16611ec583611346565b73ffffffffffffffffffffffffffffffffffffffff167f8c5be1e5ebec7d5bd14f71427d1e84f3dd0314c0f7b2291e5b200ac8c7c3b92560405160405180910390a45050565b6000611f1982600001612b7a565b9050919050565b6000611f2b82611e2d565b611f80576040517f08c379a000000000000000000000000000000000000000000000000000000000815260040180806020018281038252602c81526020018061389b602c913960400191505060405180910390fd5b6000611f8b83611346565b90508073ffffffffffffffffffffffffffffffffffffffff168473ffffffffffffffffffffffffffffffffffffffff161480611ffa57508373ffffffffffffffffffffffffffffffffffffffff16611fe284610dd3565b73ffffffffffffffffffffffffffffffffffffffff16145b8061200b575061200a8185611d99565b5b91505092915050565b8273ffffffffffffffffffffffffffffffffffffffff1661203482611346565b73ffffffffffffffffffffffffffffffffffffffff16146120a0576040517f08c379a00000000000000000000000000000000000000000000000000000000081526004018080602001828103825260298152602001806139d06029913960400191505060405180910390fd5b600073ffffffffffffffffffffffffffffffffffffffff168273ffffffffffffffffffffffffffffffffffffffff161415612126576040517f08c379a00000000000000000000000000000000000000000000000000000000081526004018080602001828103825260248152602001806138776024913960400191505060405180910390fd5b612131838383612b8b565b61213c600082611e52565b61218d81600260008673ffffffffffffffffffffffffffffffffffffffff1673ffffffffffffffffffffffffffffffffffffffff168152602001908152602001600020612b9b90919063ffffffff16565b506121df81600260008573ffffffffffffffffffffffffffffffffffffffff1673ffffffffffffffffffffffffffffffffffffffff168152602001908152602001600020612bb590919063ffffffff16565b506121f681836003612bcf9092919063ffffffff16565b50808273ffffffffffffffffffffffffffffffffffffffff168473ffffffffffffffffffffffffffffffffffffffff167fddf252ad1be2c89b69c2b068fc378daa952ba7f163c4a11628f55a4df523b3ef60405160405180910390a4505050565b61227e81600080858152602001908152602001600020600001612c0490919063ffffffff16565b156122e65761228b611e4a565b73ffffffffffffffffffffffffffffffffffffffff168173ffffffffffffffffffffffffffffffffffffffff16837f2f8788117e7eff1d82e926ec794901d17c78024a50270940304540a733656f0d60405160405180910390a45b5050565b60006122f98360000183612c34565b60001c905092915050565b61232b81600080858152602001908152602001600020600001612cb790919063ffffffff16565b1561239357612338611e4a565b73ffffffffffffffffffffffffffffffffffffffff168173ffffffffffffffffffffffffffffffffffffffff16837ff6391f5c32d9c69d2a47ea670b442974b53935d1edc7fd64eb21e047a839171b60405160405180910390a45b5050565b600b60009054906101000a900460ff16612419576040517f08c379a00000000000000000000000000000000000000000000000000000000081526004018080602001828103825260148152602001807f5061757361626c653a206e6f742070617573656400000000000000000000000081525060200191505060405180910390fd5b6000600b60006101000a81548160ff0219169083151502179055507f5db9ee0a495bf2e6ff9c91a7834c1ba4fdd244a5e8aa4e537bd38aeae4b073aa61245d611e4a565b604051808273ffffffffffffffffffffffffffffffffffffffff1673ffffffffffffffffffffffffffffffffffffffff16815260200191505060405180910390a1565b60006124ab82611346565b90506124b981600084612b8b565b6124c4600083611e52565b6000600960008481526020019081526020016000208054600181600116156101000203166002900490501461251357600960008381526020019081526020016000206000612512919061371d565b5b61256482600260008473ffffffffffffffffffffffffffffffffffffffff1673ffffffffffffffffffffffffffffffffffffffff168152602001908152602001600020612b9b90919063ffffffff16565b50612579826003612ce790919063ffffffff16565b5081600073ffffffffffffffffffffffffffffffffffffffff168273ffffffffffffffffffffffffffffffffffffffff167fddf252ad1be2c89b69c2b068fc378daa952ba7f163c4a11628f55a4df523b3ef60405160405180910390a45050565b6000806000806125ed8660000186612d01565b915091508160001c8160001c8090509350935050509250929050565b600061261c846000018460001b84612d9a565b60001c90509392505050565b600081600001549050919050565b600073ffffffffffffffffffffffffffffffffffffffff168273ffffffffffffffffffffffffffffffffffffffff1614156126d9576040517f08c379a00000000000000000000000000000000000000000000000000000000081526004018080602001828103825260208152602001807f4552433732313a206d696e7420746f20746865207a65726f206164647265737381525060200191505060405180910390fd5b6126e281611e2d565b15612755576040517f08c379a000000000000000000000000000000000000000000000000000000000815260040180806020018281038252601c8152602001807f4552433732313a20746f6b656e20616c7265616479206d696e7465640000000081525060200191505060405180910390fd5b61276160008383612b8b565b6127b281600260008573ffffffffffffffffffffffffffffffffffffffff1673ffffffffffffffffffffffffffffffffffffffff168152602001908152602001600020612bb590919063ffffffff16565b506127c981836003612bcf9092919063ffffffff16565b50808273ffffffffffffffffffffffffffffffffffffffff16600073ffffffffffffffffffffffffffffffffffffffff167fddf252ad1be2c89b69c2b068fc378daa952ba7f163c4a11628f55a4df523b3ef60405160405180910390a45050565b6001816000016000828254019250508190555050565b600061284e82600001612e90565b9050919050565b600b60009054906101000a900460ff16156128d8576040517f08c379a00000000000000000000000000000000000000000000000000000000081526004018080602001828103825260108152602001807f5061757361626c653a207061757365640000000000000000000000000000000081525060200191505060405180910390fd5b6001600b60006101000a81548160ff0219169083151502179055507f62e78cea01bee320cd4e420270b5ea74000d11b0c9f74754ebdbfc544b05a25861291c611e4a565b604051808273ffffffffffffffffffffffffffffffffffffffff1673ffffffffffffffffffffffffffffffffffffffff16815260200191505060405180910390a1565b600061296e8360000183612c34565b60001c905092915050565b60006129a1836000018373ffffffffffffffffffffffffffffffffffffffff1660001b612ea1565b905092915050565b6129b4848484612014565b6129c084848484612ec4565b612a15576040517f08c379a00000000000000000000000000000000000000000000000000000000081526004018080602001828103825260328152602001806138076032913960400191505060405180910390fd5b50505050565b60606000821415612a63576040518060400160405280600181526020017f30000000000000000000000000000000000000000000000000000000000000008152509050612b46565b600082905060005b60008214612a8d578080600101915050600a8281612a8557fe5b049150612a6b565b6060816040519080825280601f01601f191660200182016040528015612ac25781602001600182028038833980820191505090505b50905060006001830390508593505b60008414612b3e57600a8481612ae357fe5b0660300160f81b82828060019003935081518110612afd57fe5b60200101907effffffffffffffffffffffffffffffffffffffffffffffffffffffffffffff1916908160001a905350600a8481612b3657fe5b049350612ad1565b819450505050505b919050565b6000612b5982600001612e90565b9050919050565b6000612b72836000018360001b613109565b905092915050565b600081600001805490509050919050565b612b9683838361312c565b505050565b6000612bad836000018360001b61319a565b905092915050565b6000612bc7836000018360001b613282565b905092915050565b6000612bfb846000018460001b8473ffffffffffffffffffffffffffffffffffffffff1660001b6132f2565b90509392505050565b6000612c2c836000018373ffffffffffffffffffffffffffffffffffffffff1660001b613282565b905092915050565b600081836000018054905011612c95576040517f08c379a000000000000000000000000000000000000000000000000000000000815260040180806020018281038252602281526020018061378b6022913960400191505060405180910390fd5b826000018281548110612ca457fe5b9060005260206000200154905092915050565b6000612cdf836000018373ffffffffffffffffffffffffffffffffffffffff1660001b61319a565b905092915050565b6000612cf9836000018360001b6133ce565b905092915050565b60008082846000018054905011612d63576040517f08c379a00000000000000000000000000000000000000000000000000000000081526004018080602001828103825260228152602001806139826022913960400191505060405180910390fd5b6000846000018481548110612d7457fe5b906000526020600020906002020190508060000154816001015492509250509250929050565b60008084600101600085815260200190815260200160002054905060008114158390612e61576040517f08c379a00000000000000000000000000000000000000000000000000000000081526004018080602001828103825283818151815260200191508051906020019080838360005b83811015612e26578082015181840152602081019050612e0b565b50505050905090810190601f168015612e535780820380516001836020036101000a031916815260200191505b509250505060405180910390fd5b50846000016001820381548110612e7457fe5b9060005260206000209060020201600101549150509392505050565b600081600001805490509050919050565b600080836001016000848152602001908152602001600020541415905092915050565b6000612ee58473ffffffffffffffffffffffffffffffffffffffff166134e7565b612ef25760019050613101565b606061308863150b7a0260e01b612f07611e4a565b888787604051602401808573ffffffffffffffffffffffffffffffffffffffff1673ffffffffffffffffffffffffffffffffffffffff1681526020018473ffffffffffffffffffffffffffffffffffffffff1673ffffffffffffffffffffffffffffffffffffffff16815260200183815260200180602001828103825283818151815260200191508051906020019080838360005b83811015612fb7578082015181840152602081019050612f9c565b50505050905090810190601f168015612fe45780820380516001836020036101000a031916815260200191505b5095505050505050604051602081830303815290604052907bffffffffffffffffffffffffffffffffffffffffffffffffffffffff19166020820180517bffffffffffffffffffffffffffffffffffffffffffffffffffffffff8381831617835250505050604051806060016040528060328152602001613807603291398773ffffffffffffffffffffffffffffffffffffffff166134fa9092919063ffffffff16565b905060008180602001905160208110156130a157600080fd5b8101908080519060200190929190505050905063150b7a0260e01b7bffffffffffffffffffffffffffffffffffffffffffffffffffffffff1916817bffffffffffffffffffffffffffffffffffffffffffffffffffffffff191614925050505b949350505050565b600080836001016000848152602001908152602001600020541415905092915050565b613137838383613512565b61313f61132f565b15613195576040517f08c379a000000000000000000000000000000000000000000000000000000000815260040180806020018281038252602b8152602001806137ad602b913960400191505060405180910390fd5b505050565b6000808360010160008481526020019081526020016000205490506000811461327657600060018203905060006001866000018054905003905060008660000182815481106131e557fe5b906000526020600020015490508087600001848154811061320257fe5b906000526020600020018190555060018301876001016000838152602001908152602001600020819055508660000180548061323a57fe5b6001900381819060005260206000200160009055905586600101600087815260200190815260200160002060009055600194505050505061327c565b60009150505b92915050565b600061328e8383612ea1565b6132e75782600001829080600181540180825580915050600190039060005260206000200160009091909190915055826000018054905083600101600084815260200190815260200160002081905550600190506132ec565b600090505b92915050565b6000808460010160008581526020019081526020016000205490506000811415613399578460000160405180604001604052808681526020018581525090806001815401808255809150506001900390600052602060002090600202016000909190919091506000820151816000015560208201518160010155505084600001805490508560010160008681526020019081526020016000208190555060019150506133c7565b828560000160018303815481106133ac57fe5b90600052602060002090600202016001018190555060009150505b9392505050565b600080836001016000848152602001908152602001600020549050600081146134db576000600182039050600060018660000180549050039050600086600001828154811061341957fe5b906000526020600020906002020190508087600001848154811061343957fe5b906000526020600020906002020160008201548160000155600182015481600101559050506001830187600101600083600001548152602001908152602001600020819055508660000180548061348c57fe5b60019003818190600052602060002090600202016000808201600090556001820160009055505090558660010160008781526020019081526020016000206000905560019450505050506134e1565b60009150505b92915050565b600080823b905060008111915050919050565b60606135098484600085613517565b90509392505050565b505050565b6060613522856134e7565b613594576040517f08c379a000000000000000000000000000000000000000000000000000000000815260040180806020018281038252601d8152602001807f416464726573733a2063616c6c20746f206e6f6e2d636f6e747261637400000081525060200191505060405180910390fd5b600060608673ffffffffffffffffffffffffffffffffffffffff1685876040518082805190602001908083835b602083106135e457805182526020820191506020810190506020830392506135c1565b6001836020036101000a03801982511681845116808217855250505050505090500191505060006040518083038185875af1925050503d8060008114613646576040519150601f19603f3d011682016040523d82523d6000602084013e61364b565b606091505b50915091508115613660578092505050613715565b6000815111156136735780518082602001fd5b836040517f08c379a00000000000000000000000000000000000000000000000000000000081526004018080602001828103825283818151815260200191508051906020019080838360005b838110156136da5780820151818401526020810190506136bf565b50505050905090810190601f1680156137075780820380516001836020036101000a031916815260200191505b509250505060405180910390fd5b949350505050565b50805460018160011615610100020316600290046000825580601f106137435750613762565b601f0160209004906000526020600020908101906137619190613765565b5b50565b61378791905b8082111561378357600081600090555060010161376b565b5090565b9056fe456e756d657261626c655365743a20696e646578206f7574206f6620626f756e64734552433732315061757361626c653a20746f6b656e207472616e73666572207768696c6520706175736564416363657373436f6e74726f6c3a2073656e646572206d75737420626520616e2061646d696e20746f206772616e744552433732313a207472616e7366657220746f206e6f6e20455243373231526563656976657220696d706c656d656e7465724552433732315072657365744d696e7465725061757365724175746f49643a206d75737420686176652070617573657220726f6c6520746f2070617573654552433732313a207472616e7366657220746f20746865207a65726f20616464726573734552433732313a206f70657261746f7220717565727920666f72206e6f6e6578697374656e7420746f6b656e416363657373436f6e74726f6c3a2073656e646572206d75737420626520616e2061646d696e20746f207265766f6b654552433732313a20617070726f76652063616c6c6572206973206e6f74206f776e6572206e6f7220617070726f76656420666f7220616c6c4552433732313a2062616c616e636520717565727920666f7220746865207a65726f20616464726573734552433732313a206f776e657220717565727920666f72206e6f6e6578697374656e7420746f6b656e456e756d657261626c654d61703a20696e646578206f7574206f6620626f756e64734552433732313a20617070726f76656420717565727920666f72206e6f6e6578697374656e7420746f6b656e4552433732313a207472616e73666572206f6620746f6b656e2074686174206973206e6f74206f776e4552433732314d657461646174613a2055524920717565727920666f72206e6f6e6578697374656e7420746f6b656e4552433732313a20617070726f76616c20746f2063757272656e74206f776e65724552433732313a207472616e736665722063616c6c6572206973206e6f74206f776e6572206e6f7220617070726f7665644552433732315072657365744d696e7465725061757365724175746f49643a206d7573742068617665206d696e74657220726f6c6520746f206d696e744552433732314275726e61626c653a2063616c6c6572206973206e6f74206f776e6572206e6f7220617070726f7665644552433732315072657365744d696e7465725061757365724175746f49643a206d75737420686176652070617573657220726f6c6520746f20756e7061757365416363657373436f6e74726f6c3a2063616e206f6e6c792072656e6f756e636520726f6c657320666f722073656c66a264697066735822122093561e9e872b5caba59d1efbdd08f65dcad1e1314e9b15da2266f04f1f36bc9064736f6c634300060200334f6e6c792074686520626f6e64656420636f6e74726163742063616e206d696e7420746f6b656e734f6e6c7920746865206f776e6572206f7220626f6e64656420636f6e74726163742063616e206465706c6f79206e6577204e4654734f776e61626c653a206e6577206f776e657220697320746865207a65726f2061646472657373a264697066735822122046cf67899750f84a27754d27c11d4edc0505ba7f53f06c372094d26db69f388b64736f6c63430006020033",
  "source": "pragma solidity ^0.6.0;\n\nimport \"@openzeppelin/contracts/access/Ownable.sol\";\nimport \"@openzeppelin/contracts/presets/ERC721PresetMinterPauserAutoId.sol\";\n\n/* import \"https://github.com/OpenZeppelin/openzeppelin-contracts/blob/v3.2.0/contracts/presets/ERC721PresetMinterPauserAutoId.sol\";\nimport \"https://github.com/OpenZeppelin/openzeppelin-contracts/blob/v3.2.0/contracts/access/Ownable.sol\"; */\n\ncontract NFT is ERC721PresetMinterPauserAutoId {\n  constructor(string memory name, string memory symbol, string memory tokenURI)\n      public\n      ERC721PresetMinterPauserAutoId(\n          name,\n          symbol,\n          tokenURI\n      )\n  {}\n}\n\ncontract NFTFactory is Ownable() {\n\n    address[] public contracts;\n    address public lastContractAddress;\n    address public bondedContract;\n\n    mapping(address => bool) public ownedContracts;\n\n    event deployedNFT (\n        address indexed addr,\n        string indexed name,\n        string indexed symbol,\n        string tokenURI\n    );\n\n    function bondContract(address _a) public onlyOwner returns(bool) {\n        bondedContract = _a;\n        return true;\n    }\n\n    function getContractCount() public view returns(uint contractCount) {\n      return contracts.length;\n    }\n\n    function deployNFT(string memory name, string memory symbol, string memory tokenURI) public returns(NFT newContract) {\n      require(msg.sender == owner() || msg.sender == bondedContract, \"Only the owner or bonded contract can deploy new NFTs\");\n\n      NFT c = new NFT(name, symbol, tokenURI);\n      address cAddr = address(c);\n      contracts.push(cAddr);\n      lastContractAddress = cAddr;\n\n      ownedContracts[cAddr] = true;\n\n      emit deployedNFT(cAddr, name, symbol, tokenURI);\n\n      return c;\n    }\n    function mint(NFT _nft, address recipient) public {\n      require(msg.sender == bondedContract, \"Only the bonded contract can mint tokens\");\n      _nft.mint(recipient);\n    }\n}\n",
  "sourcePath": "/Users/hdahme/Projects/dapps/nft-factory/contracts/NFTFactory.sol",
  "compiler": {
    "name": "solc",
    "version": "0.6.2+commit.bacdbe57.Emscripten.clang"
  },
  "schemaVersion": "3.3.2",
  "updatedAt": "2020-11-17T20:40:50.750Z",
  "networkType": "ethereum",
  "devdoc": {
    "methods": {
      "owner()": {
        "details": "Returns the address of the current owner."
      },
      "renounceOwnership()": {
        "details": "Leaves the contract without owner. It will not be possible to call `onlyOwner` functions anymore. Can only be called by the current owner.     * NOTE: Renouncing ownership will leave the contract without an owner, thereby removing any functionality that is only available to the owner."
      },
      "transferOwnership(address)": {
        "details": "Transfers ownership of the contract to a new account (`newOwner`). Can only be called by the current owner."
      }
    }
  },
  "userdoc": {
    "methods": {}
  }
}